{
  "_format": "hh-sol-artifact-1",
  "contractName": "RecordNFT",
  "sourceName": "contracts/RecordNFT.sol",
  "abi": [
    {
      "inputs": [],
      "stateMutability": "nonpayable",
      "type": "constructor"
    },
    {
      "inputs": [],
      "name": "ECDSAInvalidSignature",
      "type": "error"
    },
    {
      "inputs": [
        {
          "internalType": "uint256",
          "name": "length",
          "type": "uint256"
        }
      ],
      "name": "ECDSAInvalidSignatureLength",
      "type": "error"
    },
    {
      "inputs": [
        {
          "internalType": "bytes32",
          "name": "s",
          "type": "bytes32"
        }
      ],
      "name": "ECDSAInvalidSignatureS",
      "type": "error"
    },
    {
      "inputs": [
        {
          "internalType": "address",
          "name": "sender",
          "type": "address"
        },
        {
          "internalType": "uint256",
          "name": "tokenId",
          "type": "uint256"
        },
        {
          "internalType": "address",
          "name": "owner",
          "type": "address"
        }
      ],
      "name": "ERC721IncorrectOwner",
      "type": "error"
    },
    {
      "inputs": [
        {
          "internalType": "address",
          "name": "operator",
          "type": "address"
        },
        {
          "internalType": "uint256",
          "name": "tokenId",
          "type": "uint256"
        }
      ],
      "name": "ERC721InsufficientApproval",
      "type": "error"
    },
    {
      "inputs": [
        {
          "internalType": "address",
          "name": "approver",
          "type": "address"
        }
      ],
      "name": "ERC721InvalidApprover",
      "type": "error"
    },
    {
      "inputs": [
        {
          "internalType": "address",
          "name": "operator",
          "type": "address"
        }
      ],
      "name": "ERC721InvalidOperator",
      "type": "error"
    },
    {
      "inputs": [
        {
          "internalType": "address",
          "name": "owner",
          "type": "address"
        }
      ],
      "name": "ERC721InvalidOwner",
      "type": "error"
    },
    {
      "inputs": [
        {
          "internalType": "address",
          "name": "receiver",
          "type": "address"
        }
      ],
      "name": "ERC721InvalidReceiver",
      "type": "error"
    },
    {
      "inputs": [
        {
          "internalType": "address",
          "name": "sender",
          "type": "address"
        }
      ],
      "name": "ERC721InvalidSender",
      "type": "error"
    },
    {
      "inputs": [
        {
          "internalType": "uint256",
          "name": "tokenId",
          "type": "uint256"
        }
      ],
      "name": "ERC721NonexistentToken",
      "type": "error"
    },
    {
      "inputs": [],
      "name": "InvalidShortString",
      "type": "error"
    },
    {
      "inputs": [
        {
          "internalType": "string",
          "name": "str",
          "type": "string"
        }
      ],
      "name": "StringTooLong",
      "type": "error"
    },
    {
      "anonymous": false,
      "inputs": [
        {
          "indexed": true,
          "internalType": "address",
          "name": "owner",
          "type": "address"
        },
        {
          "indexed": true,
          "internalType": "address",
          "name": "approved",
          "type": "address"
        },
        {
          "indexed": true,
          "internalType": "uint256",
          "name": "tokenId",
          "type": "uint256"
        }
      ],
      "name": "Approval",
      "type": "event"
    },
    {
      "anonymous": false,
      "inputs": [
        {
          "indexed": true,
          "internalType": "address",
          "name": "owner",
          "type": "address"
        },
        {
          "indexed": true,
          "internalType": "address",
          "name": "operator",
          "type": "address"
        },
        {
          "indexed": false,
          "internalType": "bool",
          "name": "approved",
          "type": "bool"
        }
      ],
      "name": "ApprovalForAll",
      "type": "event"
    },
    {
      "anonymous": false,
      "inputs": [],
      "name": "EIP712DomainChanged",
      "type": "event"
    },
    {
      "anonymous": false,
      "inputs": [
        {
          "indexed": true,
          "internalType": "address",
          "name": "from",
          "type": "address"
        },
        {
          "indexed": true,
          "internalType": "address",
          "name": "to",
          "type": "address"
        },
        {
          "indexed": true,
          "internalType": "uint256",
          "name": "tokenId",
          "type": "uint256"
        }
      ],
      "name": "Transfer",
      "type": "event"
    },
    {
      "inputs": [
        {
          "internalType": "address",
          "name": "to",
          "type": "address"
        },
        {
          "internalType": "uint256",
          "name": "tokenId",
          "type": "uint256"
        }
      ],
      "name": "approve",
      "outputs": [],
      "stateMutability": "nonpayable",
      "type": "function"
    },
    {
      "inputs": [
        {
          "internalType": "address",
          "name": "owner",
          "type": "address"
        }
      ],
      "name": "balanceOf",
      "outputs": [
        {
          "internalType": "uint256",
          "name": "",
          "type": "uint256"
        }
      ],
      "stateMutability": "view",
      "type": "function"
    },
    {
      "inputs": [],
      "name": "eip712Domain",
      "outputs": [
        {
          "internalType": "bytes1",
          "name": "fields",
          "type": "bytes1"
        },
        {
          "internalType": "string",
          "name": "name",
          "type": "string"
        },
        {
          "internalType": "string",
          "name": "version",
          "type": "string"
        },
        {
          "internalType": "uint256",
          "name": "chainId",
          "type": "uint256"
        },
        {
          "internalType": "address",
          "name": "verifyingContract",
          "type": "address"
        },
        {
          "internalType": "bytes32",
          "name": "salt",
          "type": "bytes32"
        },
        {
          "internalType": "uint256[]",
          "name": "extensions",
          "type": "uint256[]"
        }
      ],
      "stateMutability": "view",
      "type": "function"
    },
    {
      "inputs": [],
      "name": "getAllTokens",
      "outputs": [
        {
          "internalType": "uint256[]",
          "name": "",
          "type": "uint256[]"
        }
      ],
      "stateMutability": "view",
      "type": "function"
    },
    {
      "inputs": [
        {
          "internalType": "uint256",
          "name": "tokenId",
          "type": "uint256"
        }
      ],
      "name": "getApproved",
      "outputs": [
        {
          "internalType": "address",
          "name": "",
          "type": "address"
        }
      ],
      "stateMutability": "view",
      "type": "function"
    },
    {
      "inputs": [
        {
          "internalType": "uint256",
          "name": "tokenId",
          "type": "uint256"
        },
        {
          "internalType": "bytes32",
          "name": "publicKey",
          "type": "bytes32"
        },
        {
          "internalType": "bytes",
          "name": "signature",
          "type": "bytes"
        }
      ],
      "name": "getPrivateKeyComplex",
      "outputs": [
        {
          "internalType": "bytes[8]",
          "name": "",
          "type": "bytes[8]"
        }
      ],
      "stateMutability": "view",
      "type": "function"
    },
    {
      "inputs": [
        {
          "internalType": "uint256",
          "name": "tokenId",
          "type": "uint256"
        },
        {
          "internalType": "bytes32",
          "name": "publicKey",
          "type": "bytes32"
        },
        {
          "internalType": "bytes",
          "name": "signature",
          "type": "bytes"
        }
      ],
      "name": "getPrivateKeySimple",
      "outputs": [
        {
          "internalType": "bytes",
          "name": "",
          "type": "bytes"
        }
      ],
      "stateMutability": "view",
      "type": "function"
    },
    {
      "inputs": [
        {
          "internalType": "uint64",
          "name": "tokenId",
          "type": "uint64"
        }
      ],
      "name": "getTokenURI",
      "outputs": [
        {
          "internalType": "string",
          "name": "",
          "type": "string"
        }
      ],
      "stateMutability": "view",
      "type": "function"
    },
    {
      "inputs": [
        {
          "internalType": "address",
          "name": "owner",
          "type": "address"
        },
        {
          "internalType": "address",
          "name": "operator",
          "type": "address"
        }
      ],
      "name": "isApprovedForAll",
      "outputs": [
        {
          "internalType": "bool",
          "name": "",
          "type": "bool"
        }
      ],
      "stateMutability": "view",
      "type": "function"
    },
    {
      "inputs": [
        {
          "internalType": "string",
          "name": "_tokenURI",
          "type": "string"
        },
        {
          "components": [
            {
              "internalType": "string",
              "name": "name",
              "type": "string"
            },
            {
              "internalType": "bytes",
              "name": "value",
              "type": "bytes"
            },
            {
              "internalType": "bool",
              "name": "encrypted",
              "type": "bool"
            }
          ],
          "internalType": "struct RecordNFT.MetadataInput[]",
          "name": "metadataArray",
          "type": "tuple[]"
        }
      ],
      "name": "mintNFT",
      "outputs": [],
      "stateMutability": "nonpayable",
      "type": "function"
    },
    {
      "inputs": [],
      "name": "name",
      "outputs": [
        {
          "internalType": "string",
          "name": "",
          "type": "string"
        }
      ],
      "stateMutability": "view",
      "type": "function"
    },
    {
      "inputs": [
        {
          "internalType": "uint256",
          "name": "tokenId",
          "type": "uint256"
        }
      ],
      "name": "ownerOf",
      "outputs": [
        {
          "internalType": "address",
          "name": "",
          "type": "address"
        }
      ],
      "stateMutability": "view",
      "type": "function"
    },
    {
      "inputs": [
        {
          "internalType": "address",
          "name": "from",
          "type": "address"
        },
        {
          "internalType": "address",
          "name": "to",
          "type": "address"
        },
        {
          "internalType": "uint256",
          "name": "tokenId",
          "type": "uint256"
        }
      ],
      "name": "safeTransferFrom",
      "outputs": [],
      "stateMutability": "nonpayable",
      "type": "function"
    },
    {
      "inputs": [
        {
          "internalType": "address",
          "name": "from",
          "type": "address"
        },
        {
          "internalType": "address",
          "name": "to",
          "type": "address"
        },
        {
          "internalType": "uint256",
          "name": "tokenId",
          "type": "uint256"
        },
        {
          "internalType": "bytes",
          "name": "data",
          "type": "bytes"
        }
      ],
      "name": "safeTransferFrom",
      "outputs": [],
      "stateMutability": "nonpayable",
      "type": "function"
    },
    {
      "inputs": [
        {
          "internalType": "uint64",
          "name": "tokenId",
          "type": "uint64"
        },
        {
          "internalType": "string",
          "name": "name",
          "type": "string"
        },
        {
          "internalType": "euint64",
          "name": "value",
          "type": "uint256"
        }
      ],
      "name": "searchEncryptedMetadataEquals",
      "outputs": [
        {
          "internalType": "bool",
          "name": "",
          "type": "bool"
        }
      ],
      "stateMutability": "view",
      "type": "function"
    },
    {
      "inputs": [
        {
          "internalType": "address",
          "name": "operator",
          "type": "address"
        },
        {
          "internalType": "bool",
          "name": "approved",
          "type": "bool"
        }
      ],
      "name": "setApprovalForAll",
      "outputs": [],
      "stateMutability": "nonpayable",
      "type": "function"
    },
    {
      "inputs": [
        {
          "internalType": "bytes4",
          "name": "interfaceId",
          "type": "bytes4"
        }
      ],
      "name": "supportsInterface",
      "outputs": [
        {
          "internalType": "bool",
          "name": "",
          "type": "bool"
        }
      ],
      "stateMutability": "view",
      "type": "function"
    },
    {
      "inputs": [],
      "name": "symbol",
      "outputs": [
        {
          "internalType": "string",
          "name": "",
          "type": "string"
        }
      ],
      "stateMutability": "view",
      "type": "function"
    },
    {
      "inputs": [],
      "name": "tokenCounter",
      "outputs": [
        {
          "internalType": "uint256",
          "name": "",
          "type": "uint256"
        }
      ],
      "stateMutability": "view",
      "type": "function"
    },
    {
      "inputs": [
        {
          "internalType": "uint256",
          "name": "tokenId",
          "type": "uint256"
        }
      ],
      "name": "tokenURI",
      "outputs": [
        {
          "internalType": "string",
          "name": "",
          "type": "string"
        }
      ],
      "stateMutability": "view",
      "type": "function"
    },
    {
      "inputs": [
        {
          "internalType": "address",
          "name": "from",
          "type": "address"
        },
        {
          "internalType": "address",
          "name": "to",
          "type": "address"
        },
        {
          "internalType": "uint256",
          "name": "tokenId",
          "type": "uint256"
        }
      ],
      "name": "transferFrom",
      "outputs": [],
      "stateMutability": "nonpayable",
      "type": "function"
    }
  ],
  "bytecode": "0x61016060405234801562000011575f80fd5b506040518060400160405280601381526020017f417574686f72697a6174696f6e20746f6b656e00000000000000000000000000815250604051806040016040528060018152602001603160f81b81525060405180604001604052806009815260200168149958dbdc9913919560ba1b815250604051806040016040528060048152602001631493919560e21b815250815f9081620000b19190620002a4565b506001620000c08282620002a4565b50620000d29150839050600662000183565b61012052620000e381600762000183565b61014052815160208084019190912060e052815190820120610100524660a0526200017060e05161010051604080517f8b73c3c69bb8fe3d512ecc4cf759cc79239f7b179b0ffacaa9a75d522b39400f60208201529081019290925260608201524660808201523060a08201525f9060c00160405160208183030381529060405280519060200120905090565b60805250503060c0525f600855620003e2565b5f602083511015620001a2576200019a83620001bb565b9050620001b5565b81620001af8482620002a4565b5060ff90505b92915050565b5f80829050601f81511115620001f1578260405163305a27a960e01b8152600401620001e8919062000370565b60405180910390fd5b8051620001fe82620003be565b179392505050565b634e487b7160e01b5f52604160045260245ffd5b600181811c908216806200022f57607f821691505b6020821081036200024e57634e487b7160e01b5f52602260045260245ffd5b50919050565b601f8211156200029f57805f5260205f20601f840160051c810160208510156200027b5750805b601f840160051c820191505b818110156200029c575f815560010162000287565b50505b505050565b81516001600160401b03811115620002c057620002c062000206565b620002d881620002d184546200021a565b8462000254565b602080601f8311600181146200030e575f8415620002f65750858301515b5f19600386901b1c1916600185901b17855562000368565b5f85815260208120601f198616915b828110156200033e578886015182559484019460019091019084016200031d565b50858210156200035c57878501515f19600388901b60f8161c191681555b505060018460011b0185555b505050505050565b5f602080835283518060208501525f5b818110156200039e5785810183015185820160400152820162000380565b505f604082860101526040601f19601f8301168501019250505092915050565b805160208083015191908110156200024e575f1960209190910360031b1b16919050565b60805160a05160c05160e0516101005161012051610140516125d7620004345f395f610fd101525f610f9f01525f61152801525f61150001525f61145b01525f61148501525f6114af01526125d75ff3fe608060405234801561000f575f80fd5b506004361061016e575f3560e01c806370a08231116100d25780639a3662ce11610088578063c87b56dd11610063578063c87b56dd14610313578063d082e38114610326578063e985e9c51461032f575f80fd5b80639a3662ce146102cd578063a22cb465146102ed578063b88d4fde14610300575f80fd5b806384b0196e116100b857806384b0196e1461029757806395d89b41146102b2578063982e8403146102ba575f80fd5b806370a0823114610263578063825d3cbd14610284575f80fd5b80632a5c792a116101275780633bd00c4b1161010d5780633bd00c4b1461022a57806342842e0e1461023d5780636352211e14610250575f80fd5b80632a5c792a146102025780632bf2bc8f14610217575f80fd5b8063081812fc11610157578063081812fc146101af578063095ea7b3146101da57806323b872dd146101ef575f80fd5b806301ffc9a71461017257806306fdde031461019a575b5f80fd5b610185610180366004611cdb565b61036a565b60405190151581526020015b60405180910390f35b6101a26103bb565b6040516101919190611d43565b6101c26101bd366004611d55565b61044a565b6040516001600160a01b039091168152602001610191565b6101ed6101e8366004611d87565b610471565b005b6101ed6101fd366004611daf565b610480565b61020a61050e565b6040516101919190611e22565b6101a2610225366004611e4b565b6105b0565b6101a2610238366004611e64565b6106a9565b6101ed61024b366004611daf565b610872565b6101c261025e366004611d55565b610891565b610276610271366004611edd565b61089b565b604051908152602001610191565b6101ed610292366004611fec565b6108e0565b61029f610a55565b6040516101919796959493929190612131565b6101a2610a97565b6101856102c836600461219e565b610aa6565b6102e06102db366004611e64565b610b0b565b60405161019191906121f1565b6101ed6102fb36600461223e565b610d08565b6101ed61030e36600461226f565b610d13565b6101a2610321366004611d55565b610d2a565b61027660085481565b61018561033d3660046122d3565b6001600160a01b039182165f90815260056020908152604080832093909416825291909152205460ff1690565b5f6001600160e01b031982166380ac58cd60e01b148061039a57506001600160e01b03198216635b5e139f60e01b145b806103b557506301ffc9a760e01b6001600160e01b03198316145b92915050565b60605f80546103c9906122fb565b80601f01602080910402602001604051908101604052809291908181526020018280546103f5906122fb565b80156104405780601f1061041757610100808354040283529160200191610440565b820191905f5260205f20905b81548152906001019060200180831161042357829003601f168201915b5050505050905090565b5f61045482610d9a565b505f828152600460205260409020546001600160a01b03166103b5565b61047c828233610dd2565b5050565b6001600160a01b0382166104ae57604051633250574960e11b81525f60048201526024015b60405180910390fd5b5f6104ba838333610ddf565b9050836001600160a01b0316816001600160a01b031614610508576040516364283d7b60e01b81526001600160a01b03808616600483015260248201849052821660448201526064016104a5565b50505050565b60605f60085467ffffffffffffffff81111561052c5761052c611ef6565b604051908082528060200260200182016040528015610555578160200160208202803683370190505b5090505f5b81518110156105aa57600981815481106105765761057661232d565b905f5260205f2090600d02015f01548282815181106105975761059761232d565b602090810291909101015260010161055a565b50919050565b60605f5b6009548110156105aa578267ffffffffffffffff16600982815481106105dc576105dc61232d565b905f5260205f2090600d02015f0154036106a157600981815481106106035761060361232d565b905f5260205f2090600d0201600101805461061d906122fb565b80601f0160208091040260200160405190810160405280929190818152602001828054610649906122fb565b80156106945780601f1061066b57610100808354040283529160200191610694565b820191905f5260205f20905b81548152906001019060200180831161067757829003601f168201915b5050505050915050919050565b6001016105b4565b60608383838080601f0160208091040260200160405190810160405280939291908181526020018383808284375f920182905250604080517f051d137ae0e1fae6e3b6559fed4442b35a85a9a39789838ad5c9ea05e7da2dce6020820152908101879052909350610736925060600190505b60405160208183030381529060405280519060200120610ede565b90505f6107438284610f0a565b90506001600160a01b03811633146107c35760405162461bcd60e51b815260206004820152603160248201527f454950373132207369676e657220616e64207472616e73616374696f6e20736960448201527f676e657220646f206e6f74206d6174636800000000000000000000000000000060648201526084016104a5565b6107cc89610891565b6001600160a01b0316336001600160a01b0316146108385760405162461bcd60e51b8152602060048201526024808201527f43616c6c6572206973206e6f7420746865206f776e6572206f6620746865207460448201526337b5b2b760e11b60648201526084016104a5565b61086560098a8154811061084e5761084e61232d565b905f5260205f2090600d020160020154895f610f32565b9998505050505050505050565b61088c83838360405180602001604052805f815250610d13565b505050565b5f6103b582610d9a565b5f6001600160a01b0382166108c5576040516322718ad960e21b81525f60048201526024016104a5565b506001600160a01b03165f9081526003602052604090205490565b6008546108ed3382610f67565b600980546001810182555f91909152600d027f6e1540171b6c0c960b71a7020d9f60077f6af931a8bbf590da0223dacf75c7af8101907f6e1540171b6c0c960b71a7020d9f60077f6af931a8bbf590da0223dacf75c7b00161094f8582612385565b5061095a6003610f80565b60028201558181555f5b8351811015610a3a575f8482815181106109805761098061232d565b60200260200101515f015190505f8583815181106109a0576109a061232d565b60200260200101516020015190508583815181106109c0576109c061232d565b60200260200101516040015115610a01576109da81610f8c565b84600c01836040516109ec9190612445565b90815260405190819003602001902055610a30565b8084600b0183604051610a149190612445565b90815260200160405180910390209081610a2e9190612385565b505b5050600101610964565b5060088054905f610a4a83612460565b919050555050505050565b5f6060805f805f6060610a66610f98565b610a6e610fca565b604080515f80825260208201909252600f60f81b9b939a50919850469750309650945092509050565b6060600180546103c9906122fb565b5f610b01610afc8360098767ffffffffffffffff1681548110610acb57610acb61232d565b905f5260205f2090600d0201600c0186604051610ae89190612445565b908152602001604051809103902054610ff7565b611025565b90505b9392505050565b610b13611c9b565b8383838080601f0160208091040260200160405190810160405280939291908181526020018383808284375f920182905250604080517f051d137ae0e1fae6e3b6559fed4442b35a85a9a39789838ad5c9ea05e7da2dce6020820152908101879052909350610b879250606001905061071b565b90505f610b948284610f0a565b90506001600160a01b0381163314610c145760405162461bcd60e51b815260206004820152603160248201527f454950373132207369676e657220616e64207472616e73616374696f6e20736960448201527f676e657220646f206e6f74206d6174636800000000000000000000000000000060648201526084016104a5565b610c1d89610891565b6001600160a01b0316336001600160a01b031614610c895760405162461bcd60e51b8152602060048201526024808201527f43616c6c6572206973206e6f7420746865206f776e6572206f6620746865207460448201526337b5b2b760e11b60648201526084016104a5565b610c91611c9b565b5f5b6008811015610cfa57610cdb60098c81548110610cb257610cb261232d565b905f5260205f2090600d02016003018260088110610cd257610cd261232d565b01548b5f611037565b828260088110610ced57610ced61232d565b6020020152600101610c93565b509998505050505050505050565b61047c33838361105b565b610d1e848484610480565b610508848484846110f9565b6060610d3582610d9a565b505f610d4b60408051602081019091525f815290565b90505f815111610d695760405180602001604052805f815250610b04565b80610d738461121f565b604051602001610d84929190612484565b6040516020818303038152906040529392505050565b5f818152600260205260408120546001600160a01b0316806103b557604051637e27328960e01b8152600481018490526024016104a5565b61088c83838360016112bc565b5f828152600260205260408120546001600160a01b0390811690831615610e0b57610e0b8184866113eb565b6001600160a01b03811615610e4557610e265f855f806112bc565b6001600160a01b0381165f90815260036020526040902080545f190190555b6001600160a01b03851615610e73576001600160a01b0385165f908152600360205260409020805460010190555b5f84815260026020526040808220805473ffffffffffffffffffffffffffffffffffffffff19166001600160a01b0389811691821790925591518793918516917fddf252ad1be2c89b69c2b068fc378daa952ba7f163c4a11628f55a4df523b3ef91a4949350505050565b5f6103b5610eea61144f565b8360405161190160f01b8152600281019290925260228201526042902090565b5f805f80610f188686611578565b925092509250610f2882826115c1565b5090949350505050565b60608315610f4b57610f448484611679565b9050610b04565b610f44610f618367ffffffffffffffff16610f80565b84611679565b61047c828260405180602001604052805f8152506116e4565b5f6103b58260056116fa565b5f6103b582600561176f565b6060610fc57f00000000000000000000000000000000000000000000000000000000000000006006611802565b905090565b6060610fc57f00000000000000000000000000000000000000000000000000000000000000006007611802565b5f82611009576110065f610f80565b92505b8161101a576110175f610f80565b91505b610b0483835f6118ab565b5f61102f82611940565b151592915050565b6060831561104957610f448484611679565b610f44610f618363ffffffff166119a1565b6001600160a01b03821661108d57604051630b61174360e31b81526001600160a01b03831660048201526024016104a5565b6001600160a01b038381165f81815260056020908152604080832094871680845294825291829020805460ff191686151590811790915591519182527f17307eab39ab6107e8899845ad3d59bd9653f200f220920489ca2b5937696c31910160405180910390a3505050565b6001600160a01b0383163b1561050857604051630a85bd0160e11b81526001600160a01b0384169063150b7a029061113b9033908890879087906004016124b2565b6020604051808303815f875af1925050508015611175575060408051601f3d908101601f19168201909252611172918101906124ed565b60015b6111dc573d8080156111a2576040519150601f19603f3d011682016040523d82523d5f602084013e6111a7565b606091505b5080515f036111d457604051633250574960e11b81526001600160a01b03851660048201526024016104a5565b805181602001fd5b6001600160e01b03198116630a85bd0160e11b1461121857604051633250574960e11b81526001600160a01b03851660048201526024016104a5565b5050505050565b60605f61122b836119ad565b60010190505f8167ffffffffffffffff81111561124a5761124a611ef6565b6040519080825280601f01601f191660200182016040528015611274576020820181803683370190505b5090508181016020015b5f19017f3031323334353637383961626364656600000000000000000000000000000000600a86061a8153600a850494508461127e57509392505050565b80806112d057506001600160a01b03821615155b156113af575f6112df84610d9a565b90506001600160a01b0383161580159061130b5750826001600160a01b0316816001600160a01b031614155b801561133c57506001600160a01b038082165f9081526005602090815260408083209387168352929052205460ff16155b156113655760405163a9fbf51f60e01b81526001600160a01b03841660048201526024016104a5565b81156113ad5783856001600160a01b0316826001600160a01b03167f8c5be1e5ebec7d5bd14f71427d1e84f3dd0314c0f7b2291e5b200ac8c7c3b92560405160405180910390a45b505b50505f908152600460205260409020805473ffffffffffffffffffffffffffffffffffffffff19166001600160a01b0392909216919091179055565b6113f6838383611a8e565b61088c576001600160a01b03831661142457604051637e27328960e01b8152600481018290526024016104a5565b60405163177e802f60e01b81526001600160a01b0383166004820152602481018290526044016104a5565b5f306001600160a01b037f0000000000000000000000000000000000000000000000000000000000000000161480156114a757507f000000000000000000000000000000000000000000000000000000000000000046145b156114d157507f000000000000000000000000000000000000000000000000000000000000000090565b610fc5604080517f8b73c3c69bb8fe3d512ecc4cf759cc79239f7b179b0ffacaa9a75d522b39400f60208201527f0000000000000000000000000000000000000000000000000000000000000000918101919091527f000000000000000000000000000000000000000000000000000000000000000060608201524660808201523060a08201525f9060c00160405160208183030381529060405280519060200120905090565b5f805f83516041036115af576020840151604085015160608601515f1a6115a188828585611b0e565b9550955095505050506115ba565b505081515f91506002905b9250925092565b5f8260038111156115d4576115d4612508565b036115dd575050565b60018260038111156115f1576115f1612508565b0361160f5760405163f645eedf60e01b815260040160405180910390fd5b600282600381111561162357611623612508565b036116445760405163fce698f760e01b8152600481018290526024016104a5565b600382600381111561165857611658612508565b0361047c576040516335e2f38360e21b8152600481018290526024016104a5565b60405163d6ad57cd60e01b81526004810183905260248101829052606090605d9063d6ad57cd906044015f60405180830381865afa1580156116bd573d5f803e3d5ffd5b505050506040513d5f823e601f3d908101601f19168201604052610b04919081019061251c565b6116ee8383611bd6565b61088c5f8484846110f9565b604051631ce2e8d760e31b8152600481018390526001600160f81b031960f883901b1660248201525f90605d9063e71746b890604401602060405180830381865afa15801561174b573d5f803e3d5ffd5b505050506040513d601f19601f82011682018060405250810190610b049190612585565b5f80838360f81b60405160200161178792919061259c565b60408051601f1981840301815290829052630964a5d960e31b82529150605d90634b252ec8906117bb908490600401611d43565b602060405180830381865afa1580156117d6573d5f803e3d5ffd5b505050506040513d601f19601f820116820180604052508101906117fa9190612585565b949350505050565b606060ff831461181c5761181583611c37565b90506103b5565b818054611828906122fb565b80601f0160208091040260200160405190810160405280929190818152602001828054611854906122fb565b801561189f5780601f106118765761010080835404028352916020019161189f565b820191905f5260205f20905b81548152906001019060200180831161188257829003601f168201915b505050505090506103b5565b5f8082156118be5750600160f81b6118c1565b505f5b604051630d7c62eb60e31b815260048101869052602481018590526001600160f81b031982166044820152605d90636be3175890606401602060405180830381865afa158015611913573d5f803e3d5ffd5b505050506040513d601f19601f820116820180604052508101906119379190612585565b95945050505050565b6040516301693b9160e61b8152600481018290525f90605d90635a4ee44090602401602060405180830381865afa15801561197d573d5f803e3d5ffd5b505050506040513d601f19601f820116820180604052508101906103b59190612585565b5f6103b58260046116fa565b5f807a184f03e93ff9f4daa797ed6e38ed64bf6a1f01000000000000000083106119f5577a184f03e93ff9f4daa797ed6e38ed64bf6a1f010000000000000000830492506040015b6d04ee2d6d415b85acef81000000008310611a21576d04ee2d6d415b85acef8100000000830492506020015b662386f26fc100008310611a3f57662386f26fc10000830492506010015b6305f5e1008310611a57576305f5e100830492506008015b6127108310611a6b57612710830492506004015b60648310611a7d576064830492506002015b600a83106103b55760010192915050565b5f6001600160a01b03831615801590610b015750826001600160a01b0316846001600160a01b03161480611ae657506001600160a01b038085165f9081526005602090815260408083209387168352929052205460ff165b80610b015750505f908152600460205260409020546001600160a01b03908116911614919050565b5f80807f7fffffffffffffffffffffffffffffff5d576e7357a4501ddfe92f46681b20a0841115611b4757505f91506003905082611bcc565b604080515f808252602082018084528a905260ff891692820192909252606081018790526080810186905260019060a0016020604051602081039080840390855afa158015611b98573d5f803e3d5ffd5b5050604051601f1901519150506001600160a01b038116611bc357505f925060019150829050611bcc565b92505f91508190505b9450945094915050565b6001600160a01b038216611bff57604051633250574960e11b81525f60048201526024016104a5565b5f611c0b83835f610ddf565b90506001600160a01b0381161561088c576040516339e3563760e11b81525f60048201526024016104a5565b60605f611c4383611c74565b6040805160208082528183019092529192505f91906020820181803683375050509182525060208101929092525090565b5f60ff8216601f8111156103b557604051632cd44ac360e21b815260040160405180910390fd5b6040518061010001604052806008905b6060815260200190600190039081611cab5790505090565b6001600160e01b031981168114611cd8575f80fd5b50565b5f60208284031215611ceb575f80fd5b8135610b0481611cc3565b5f5b83811015611d10578181015183820152602001611cf8565b50505f910152565b5f8151808452611d2f816020860160208601611cf6565b601f01601f19169290920160200192915050565b602081525f610b046020830184611d18565b5f60208284031215611d65575f80fd5b5035919050565b80356001600160a01b0381168114611d82575f80fd5b919050565b5f8060408385031215611d98575f80fd5b611da183611d6c565b946020939093013593505050565b5f805f60608486031215611dc1575f80fd5b611dca84611d6c565b9250611dd860208501611d6c565b9150604084013590509250925092565b5f815180845260208085019450602084015f5b83811015611e1757815187529582019590820190600101611dfb565b509495945050505050565b602081525f610b046020830184611de8565b803567ffffffffffffffff81168114611d82575f80fd5b5f60208284031215611e5b575f80fd5b610b0482611e34565b5f805f8060608587031215611e77575f80fd5b8435935060208501359250604085013567ffffffffffffffff80821115611e9c575f80fd5b818701915087601f830112611eaf575f80fd5b813581811115611ebd575f80fd5b886020828501011115611ece575f80fd5b95989497505060200194505050565b5f60208284031215611eed575f80fd5b610b0482611d6c565b634e487b7160e01b5f52604160045260245ffd5b6040516060810167ffffffffffffffff81118282101715611f2d57611f2d611ef6565b60405290565b604051601f8201601f1916810167ffffffffffffffff81118282101715611f5c57611f5c611ef6565b604052919050565b5f67ffffffffffffffff821115611f7d57611f7d611ef6565b50601f01601f191660200190565b5f82601f830112611f9a575f80fd5b8135611fad611fa882611f64565b611f33565b818152846020838601011115611fc1575f80fd5b816020850160208301375f918101602001919091529392505050565b80358015158114611d82575f80fd5b5f8060408385031215611ffd575f80fd5b823567ffffffffffffffff80821115612014575f80fd5b61202086838701611f8b565b9350602091508185013581811115612036575f80fd5b8501601f81018713612046575f80fd5b80358281111561205857612058611ef6565b8060051b612067858201611f33565b918252828101850191858101908a841115612080575f80fd5b86850192505b838310156121205782358681111561209c575f80fd5b85016060818d03601f19018113156120b2575f80fd5b6120ba611f0a565b89830135898111156120ca575f80fd5b6120d88f8c83870101611f8b565b8252506040830135898111156120ec575f80fd5b6120fa8f8c83870101611f8b565b8b8301525061210a828401611fdd565b6040820152845250509186019190860190612086565b809750505050505050509250929050565b60ff60f81b8816815260e060208201525f61214f60e0830189611d18565b82810360408401526121618189611d18565b90508660608401526001600160a01b03861660808401528460a084015282810360c08401526121908185611de8565b9a9950505050505050505050565b5f805f606084860312156121b0575f80fd5b6121b984611e34565b9250602084013567ffffffffffffffff8111156121d4575f80fd5b6121e086828701611f8b565b925050604084013590509250925092565b60208082525f90610120830183820185845b600881101561223257601f19878503018352612220848351611d18565b93509184019190840190600101612203565b50919695505050505050565b5f806040838503121561224f575f80fd5b61225883611d6c565b915061226660208401611fdd565b90509250929050565b5f805f8060808587031215612282575f80fd5b61228b85611d6c565b935061229960208601611d6c565b925060408501359150606085013567ffffffffffffffff8111156122bb575f80fd5b6122c787828801611f8b565b91505092959194509250565b5f80604083850312156122e4575f80fd5b6122ed83611d6c565b915061226660208401611d6c565b600181811c9082168061230f57607f821691505b6020821081036105aa57634e487b7160e01b5f52602260045260245ffd5b634e487b7160e01b5f52603260045260245ffd5b601f82111561088c57805f5260205f20601f840160051c810160208510156123665750805b601f840160051c820191505b81811015611218575f8155600101612372565b815167ffffffffffffffff81111561239f5761239f611ef6565b6123b3816123ad84546122fb565b84612341565b602080601f8311600181146123e6575f84156123cf5750858301515b5f19600386901b1c1916600185901b17855561243d565b5f85815260208120601f198616915b82811015612414578886015182559484019460019091019084016123f5565b508582101561243157878501515f19600388901b60f8161c191681555b505060018460011b0185555b505050505050565b5f8251612456818460208701611cf6565b9190910192915050565b5f6001820161247d57634e487b7160e01b5f52601160045260245ffd5b5060010190565b5f8351612495818460208801611cf6565b8351908301906124a9818360208801611cf6565b01949350505050565b5f6001600160a01b038087168352808616602084015250836040830152608060608301526124e36080830184611d18565b9695505050505050565b5f602082840312156124fd575f80fd5b8151610b0481611cc3565b634e487b7160e01b5f52602160045260245ffd5b5f6020828403121561252c575f80fd5b815167ffffffffffffffff811115612542575f80fd5b8201601f81018413612552575f80fd5b8051612560611fa882611f64565b818152856020838501011115612574575f80fd5b611937826020830160208601611cf6565b5f60208284031215612595575f80fd5b5051919050565b5f83516125ad818460208801611cf6565b6001600160f81b031993909316919092019081526001019291505056fea164736f6c6343000816000a",
  "linkReferences": {},
  "deployedLinkReferences": {}
}